{
  "contractName": "SeatReservation",
  "abi": [
    {
      "inputs": [],
      "stateMutability": "nonpayable",
      "type": "constructor"
    },
    {
      "anonymous": false,
      "inputs": [
        {
          "indexed": false,
          "internalType": "uint256",
          "name": "_seatNumber",
          "type": "uint256"
        },
        {
          "indexed": false,
          "internalType": "uint256",
          "name": "_employeeNumber",
          "type": "uint256"
        }
      ],
      "name": "UpdateSeat",
      "type": "event"
    },
    {
      "inputs": [
        {
          "internalType": "uint256",
          "name": "",
          "type": "uint256"
        }
      ],
      "name": "seats",
      "outputs": [
        {
          "internalType": "uint256",
          "name": "",
          "type": "uint256"
        }
      ],
      "stateMutability": "view",
      "type": "function",
      "constant": true
    },
    {
      "inputs": [],
      "name": "getAllSeats",
      "outputs": [
        {
          "internalType": "bool[]",
          "name": "result",
          "type": "bool[]"
        }
      ],
      "stateMutability": "view",
      "type": "function",
      "constant": true
    },
    {
      "inputs": [
        {
          "internalType": "uint256",
          "name": "_employeeNumber",
          "type": "uint256"
        }
      ],
      "name": "getCurrentSeat",
      "outputs": [
        {
          "internalType": "uint256",
          "name": "",
          "type": "uint256"
        }
      ],
      "stateMutability": "view",
      "type": "function",
      "constant": true
    },
    {
      "inputs": [
        {
          "internalType": "uint256",
          "name": "_seatNumber",
          "type": "uint256"
        }
      ],
      "name": "getEmployeeNumber",
      "outputs": [
        {
          "internalType": "uint256",
          "name": "",
          "type": "uint256"
        }
      ],
      "stateMutability": "view",
      "type": "function",
      "constant": true
    },
    {
      "inputs": [
        {
          "internalType": "uint256",
          "name": "_seatNumber",
          "type": "uint256"
        },
        {
          "internalType": "uint256",
          "name": "_employeeNumber",
          "type": "uint256"
        }
      ],
      "name": "book",
      "outputs": [
        {
          "internalType": "uint256",
          "name": "bookNumber",
          "type": "uint256"
        }
      ],
      "stateMutability": "nonpayable",
      "type": "function"
    },
    {
      "inputs": [
        {
          "internalType": "uint256",
          "name": "_employeeNumber",
          "type": "uint256"
        }
      ],
      "name": "cancel",
      "outputs": [
        {
          "internalType": "bool",
          "name": "success",
          "type": "bool"
        }
      ],
      "stateMutability": "nonpayable",
      "type": "function"
    }
  ],
  "bytecode": "0x608060405234801561001057600080fd5b50601467ffffffffffffffff81111561002c5761002b6100e0565b5b60405190808252806020026020018201604052801561005a5781602001602082028036833780820191505090505b5060009080519060200190610070929190610076565b5061010f565b8280548282559060005260206000209081019282156100b2579160200282015b828111156100b1578251825591602001919060010190610096565b5b5090506100bf91906100c3565b5090565b5b808211156100dc5760008160009055506001016100c4565b5090565b7f4e487b7100000000000000000000000000000000000000000000000000000000600052604160045260246000fd5b610bee8061011e6000396000f3fe608060405234801561001057600080fd5b50600436106100615760003560e01c80624ef6c6146100665780633b33c7021461009657806340e58ee5146100c6578063730fedd9146100f657806382b6f5cf14610126578063d2f5451614610156575b600080fd5b610080600480360381019061007b9190610647565b610174565b60405161008d9190610696565b60405180910390f35b6100b060048036038101906100ab91906106b1565b61030c565b6040516100bd9190610696565b60405180910390f35b6100e060048036038101906100db91906106b1565b610330565b6040516100ed91906106f9565b60405180910390f35b610110600480360381019061010b91906106b1565b61048e565b60405161011d9190610696565b60405180910390f35b610140600480360381019061013b91906106b1565b6104f3565b60405161014d9190610696565b60405180910390f35b61015e61051a565b60405161016b91906107d2565b60405180910390f35b60008083101580156101865750601483105b6101c5576040517f08c379a00000000000000000000000000000000000000000000000000000000081526004016101bc90610877565b60405180910390fd5b600182101580156101d65750601582105b610215576040517f08c379a000000000000000000000000000000000000000000000000000000000815260040161020c90610909565b60405180910390fd5b61021e836105d7565b61025d576040517f08c379a000000000000000000000000000000000000000000000000000000000815260040161025490610975565b60405180910390fd5b610266826105f1565b156102a6576040517f08c379a000000000000000000000000000000000000000000000000000000000815260040161029d90610a07565b60405180910390fd5b81600084815481106102bb576102ba610a27565b5b90600052602060002001819055507fad9e37ab364a7e5fa36563751062c7a8786d8ac7d5821d18f0d1fca9eb7515cf83836040516102fa929190610a56565b60405180910390a16032905092915050565b6000818154811061031c57600080fd5b906000526020600020016000915090505481565b6000600182101580156103435750601582105b610382576040517f08c379a000000000000000000000000000000000000000000000000000000000815260040161037990610909565b60405180910390fd5b61038b826105f1565b6103ca576040517f08c379a00000000000000000000000000000000000000000000000000000000081526004016103c190610af1565b60405180910390fd5b60005b60148110156104375782600082815481106103eb576103ea610a27565b5b9060005260206000200154141561042457600080828154811061041157610410610a27565b5b9060005260206000200181905550610437565b808061042f90610b40565b9150506103cd565b6014811015610483577fad9e37ab364a7e5fa36563751062c7a8786d8ac7d5821d18f0d1fca9eb7515cf8184604051610471929190610a56565b60405180910390a16001915050610489565b60009150505b919050565b600080600090505b60148110156104e857600083600083815481106104b6576104b5610a27565b5b906000526020600020015414905080156104d45781925050506104ee565b5080806104e090610b40565b915050610496565b50606390505b919050565b600080828154811061050857610507610a27565b5b90600052602060002001549050919050565b6060601467ffffffffffffffff81111561053757610536610b89565b5b6040519080825280602002602001820160405280156105655781602001602082028036833780820191505090505b50905060005b60148110156105d3576000806000838154811061058b5761058a610a27565b5b9060005260206000200154149050808383815181106105ad576105ac610a27565b5b6020026020010190151590811515815250505080806105cb90610b40565b91505061056b565b5090565b6000806105e3836104f3565b905060008114915050919050565b6000806105fd8361048e565b90506063811415915050919050565b600080fd5b6000819050919050565b61062481610611565b811461062f57600080fd5b50565b6000813590506106418161061b565b92915050565b6000806040838503121561065e5761065d61060c565b5b600061066c85828601610632565b925050602061067d85828601610632565b9150509250929050565b61069081610611565b82525050565b60006020820190506106ab6000830184610687565b92915050565b6000602082840312156106c7576106c661060c565b5b60006106d584828501610632565b91505092915050565b60008115159050919050565b6106f3816106de565b82525050565b600060208201905061070e60008301846106ea565b92915050565b600081519050919050565b600082825260208201905092915050565b6000819050602082019050919050565b610749816106de565b82525050565b600061075b8383610740565b60208301905092915050565b6000602082019050919050565b600061077f82610714565b610789818561071f565b935061079483610730565b8060005b838110156107c55781516107ac888261074f565b97506107b783610767565b925050600181019050610798565b5085935050505092915050565b600060208201905081810360008301526107ec8184610774565b905092915050565b600082825260208201905092915050565b7f53656174204e756d626572206973206e6f7420696e2072616e67652028302d3160008201527f39292e0000000000000000000000000000000000000000000000000000000000602082015250565b60006108616023836107f4565b915061086c82610805565b604082019050919050565b6000602082019050818103600083015261089081610854565b9050919050565b7f456d706c6f796565204e756d626572206973206e6f7420696e2072616e67652060008201527f28312d3230292e00000000000000000000000000000000000000000000000000602082015250565b60006108f36027836107f4565b91506108fe82610897565b604082019050919050565b60006020820190508181036000830152610922816108e6565b9050919050565b7f546869732073656174206973206e6f74206176616961626c652e000000000000600082015250565b600061095f601a836107f4565b915061096a82610929565b602082019050919050565b6000602082019050818103600083015261098e81610952565b9050919050565b7f5468697320656d706c6f79656520616c726561647920626f6f6b65642061207360008201527f6561742e00000000000000000000000000000000000000000000000000000000602082015250565b60006109f16024836107f4565b91506109fc82610995565b604082019050919050565b60006020820190508181036000830152610a20816109e4565b9050919050565b7f4e487b7100000000000000000000000000000000000000000000000000000000600052603260045260246000fd5b6000604082019050610a6b6000830185610687565b610a786020830184610687565b9392505050565b7f5468697320656d706c6f79656520646f6573206e6f7420626f6f6b656420612060008201527f736561742e000000000000000000000000000000000000000000000000000000602082015250565b6000610adb6025836107f4565b9150610ae682610a7f565b604082019050919050565b60006020820190508181036000830152610b0a81610ace565b9050919050565b7f4e487b7100000000000000000000000000000000000000000000000000000000600052601160045260246000fd5b6000610b4b82610611565b91507fffffffffffffffffffffffffffffffffffffffffffffffffffffffffffffffff821415610b7e57610b7d610b11565b5b600182019050919050565b7f4e487b7100000000000000000000000000000000000000000000000000000000600052604160045260246000fdfea2646970667358221220e3beb44331ad6979d3d6ffdaa80837671cac97ea556e8dc3c462e142347f269a64736f6c634300080b0033",
  "immutableReferences": {},
  "source": "// SPDX-License-Identifier: Unlicense\r\npragma solidity ^0.8.11;\r\n\r\ncontract SeatReservation {\r\n    uint256 private constant UNKNOWN_SEAT = 99;\r\n    uint256[] public seats;\r\n\r\n    // Create the new token and assign initial values, including initial amount\r\n    constructor() {\r\n        seats = new uint256[](20);\r\n    }\r\n\r\n    event UpdateSeat(uint256 _seatNumber, uint256 _employeeNumber);\r\n\r\n    // return all seats (true means booked)\r\n    function getAllSeats() public view returns (bool[] memory result) {\r\n        result = new bool[](20);\r\n\r\n        for (uint256 _seatNumber = 0; _seatNumber < 20; _seatNumber++) {\r\n            bool avaiable = (seats[_seatNumber] == 0);\r\n            result[_seatNumber] = avaiable;\r\n        }\r\n        return result;\r\n    }\r\n\r\n    function getCurrentSeat(uint256 _employeeNumber)\r\n        public\r\n        view\r\n        returns (uint256)\r\n    {\r\n        for (uint256 _seatNumber = 0; _seatNumber < 20; _seatNumber++) {\r\n            bool isMatch = (seats[_seatNumber] == _employeeNumber);\r\n            if (isMatch) {\r\n                return _seatNumber;\r\n            }\r\n        }\r\n        return UNKNOWN_SEAT;\r\n    }\r\n\r\n    function getEmployeeNumber(uint256 _seatNumber)\r\n        public\r\n        view\r\n        returns (uint256)\r\n    {\r\n        return seats[_seatNumber];\r\n    }\r\n\r\n    function isSeatAvaiable(uint256 _seatNumber)\r\n        private\r\n        view\r\n        returns (bool avaiable)\r\n    {\r\n        uint256 employeeNumber = getEmployeeNumber(_seatNumber);\r\n        avaiable = (employeeNumber == 0);\r\n        return avaiable;\r\n    }\r\n\r\n    function alreadyHaveSeat(uint256 _employeeNumber)\r\n        private\r\n        view\r\n        returns (bool booked)\r\n    {\r\n        uint256 _seatNumber = getCurrentSeat(_employeeNumber);\r\n        booked = (_seatNumber != UNKNOWN_SEAT);\r\n        return booked;\r\n    }\r\n\r\n    // Book seat by fill in seatNumber and employeeNumber\r\n    function book(uint256 _seatNumber, uint256 _employeeNumber)\r\n        public\r\n        returns (uint256 bookNumber)\r\n    {\r\n        require(\r\n            _seatNumber >= 0 && _seatNumber < 20,\r\n            \"Seat Number is not in range (0-19).\"\r\n        );\r\n        require(\r\n            _employeeNumber >= 1 && _employeeNumber < 21,\r\n            \"Employee Number is not in range (1-20).\"\r\n        );\r\n        require(isSeatAvaiable(_seatNumber), \"This seat is not avaiable.\");\r\n        require(\r\n            !alreadyHaveSeat(_employeeNumber),\r\n            \"This employee already booked a seat.\"\r\n        );\r\n\r\n        seats[_seatNumber] = _employeeNumber;\r\n        emit UpdateSeat(_seatNumber, _employeeNumber); //solhint-disable-line indent, no-unused-vars\r\n        return 50;\r\n    }\r\n\r\n    // Cancel seat by fill in employeeNumber\r\n    function cancel(uint256 _employeeNumber) public returns (bool success) {\r\n        require(\r\n            _employeeNumber >= 1 && _employeeNumber < 21,\r\n            \"Employee Number is not in range (1-20).\"\r\n        );\r\n        require(\r\n            alreadyHaveSeat(_employeeNumber),\r\n            \"This employee does not booked a seat.\"\r\n        );\r\n        uint256 _seatNumber = 0;\r\n        for (; _seatNumber < 20; _seatNumber++) {\r\n            if (seats[_seatNumber] == _employeeNumber) {\r\n                seats[_seatNumber] = 0;\r\n                break;\r\n            }\r\n        }\r\n        if (_seatNumber < 20) {\r\n            emit UpdateSeat(_seatNumber, _employeeNumber); //solhint-disable-line indent, no-unused-vars\r\n            return true;\r\n        } else {\r\n            return false;\r\n        }\r\n    }\r\n}\r\n",
  "sourcePath": "F:\\gits\\seat-reservation-web3js-and-angular-example\\solidity\\contracts\\SeatReservation.sol",
  "compiler": {
    "name": "solc",
    "version": "0.8.11+commit.d7f03943.Emscripten.clang"
  },
  "schemaVersion": "3.4.4",
  "updatedAt": "2022-02-23T10:23:28.475Z",
  "networkType": "ethereum",
  "devdoc": {
    "kind": "dev",
    "methods": {},
    "version": 1
  },
  "userdoc": {
    "kind": "user",
    "methods": {},
    "version": 1
  }
}